:020000040800F2
:1000000018090020A101000837380008BD2C00089D
:10001000353800083F140008853F00080000000044
:10002000000000000000000000000000373A000857
:10003000A515000800000000113A0008393A000830
:10004000BB010008BB010008BB010008BB010008A0
:10005000BB010008BB010008BB010008BB01000890
:10006000A7150008BB010008BB010008BB01000880
:10007000BB010008BB010008BB010008BB01000870
:10008000BB010008BB010008BB010008BB01000860
:10009000BB010008BB010008BB010008AD1500084A
:1000A000BB010008BB010008BB010008BB01000840
:1000B000BB010008BB010008BB010008BB01000830
:1000C000BB010008BB010008BB010008BB01000820
:1000D000BB010008BB010008BB010008113F00087C
:1000E000BB010008BB010008BB01000800F002F8DA
:1000F00000F047F80AA090E8000C82448344AAF17B
:100100000107DA4501D100F03CF8AFF2090EBAE878
:100110000F0013F0010F18BFFB1A43F0010318473B
:100120004C8F00006C8F0000103A24BF78C878C153
:10013000FAD8520724BF30C830C144BF04680C60ED
:10014000704700000023002400250026103A28BF35
:1001500078C1FBD8520728BF30C148BF0B60704739
:10016000662907F00283002070471FB500F026FCC7
:1001700004000020002106F0B1FAE0601FBD10B5B8
:1001800010BD00F01FFD1146FFF7EFFF05F074FAF8
:1001900000F03DFD03B4FFF7F2FF03BC00F080FD6B
:1001A0000948804709480047FEE7FEE7FEE7FEE70B
:1001B000FEE7FEE7FEE7FEE7FEE7FEE70448054947
:1001C000054A064B704700009B3A0008ED00000806
:1001D0001803002018090020180500201805002029
:1001E00010B54C1084EA530404D54042C1F100011B
:1001F00038BF491E1B4204D55242C3F1000338BF29
:100200005B1E00F00AF914F0804F04D04042C1F1A7
:10021000000138BF491E14F0004F04D05242C3F110
:10022000000338BF5B1E10BD0FB41CB5074B06AAF8
:100230007B4469460090059800F085FB00206946E4
:1002400000F094FB1CBC5DF814FB000039070000B3
:100250002DE9F0474FF0000A89460446C0F820A077
:100260002046E1688847002876D0252806D0D4E9C2
:1002700001219047206A401C2062F1E7E168204696
:1002800000258847C4F81CA006460027C4F818A01B
:100290002A2E09D0304603F085FF38B304EB8708D7
:1002A000303EC8F8186019E059F8041B204604EBEA
:1002B00087029161E1688847012F064618D1E069FD
:1002C000002820DA25F020051DE0D8F8180000EB02
:1002D000800006EB40003038C8F818002046E1687E
:1002E0008847064603F05EFF0028EED1012F0AD0B2
:1002F0002E2E08D12046E16888477F1C0646022F33
:1003000045F02005C4DBA069002803DA404245F02F
:100310000105A061E80701D025F01005B6B1A6F1EE
:100320004100192802D8203645F400654A46314676
:10033000204625604D46FFF713FF58B1012806D02F
:10034000ED1D25F0070000F1080989E704E005F13B
:10035000040985E730468AE7206ABDE8F08740EA6D
:10036000010310B59B070FD1042A0DD310C808C98B
:10037000121F9C42F8D020BA19BA884201D9012034
:1003800010BD4FF0FF3010BD1AB1D30703D0521C7F
:1003900007E0002010BD10F8013B11F8014B1B1BBA
:1003A00007D110F8013B11F8014B1B1B01D1921E24
:1003B000F1D1184610BD02F0FF0343EA032242EADE
:1003C000024200F0DABA4FF0000200B5134694463C
:1003D0009646203922BFA0E80C50A0E80C50B1F19D
:1003E0002001BFF4F7AF090728BFA0E80C5048BFB1
:1003F0000CC05DF804EB890028BF40F8042B08BF4F
:10040000704748BF20F8022B11F0804F18BF00F84A
:10041000012B704770477047704753EA020C00F099
:1004200069802DE9F04B4FF00006002B1FBFB3FA97
:1004300083F503FA05F424FA05F65E4012BF16436D
:10044000B2FA82F502FA05F4C5F120051EBF22FAC0
:1004500005FC44EA0C04203556EA044C4FEA1444E7
:1004600018BF641C4FF000084FF00009904271EB78
:10047000030C39D3002919BFB1FA81F701FA07F645
:10048000B0FA80F700FA07F6C7F120071EBF20FA7E
:1004900007FC46EA0C062037B6FBF4FCA7EB050781
:1004A000103F07F01F0BCBF120060CFA0BFB2CFAC8
:1004B00006F644BFB3460026202FA4BF5E464FF089
:1004C000000B5BEA060C08BF4FF0010B19EB0B09A0
:1004D000ABFB027C48EB0608C01B06FB02CC0BFB07
:1004E00003CC71EB0C01C1E70B460246414648467E
:1004F000BDE8F08B13B54FF000004FF00001AFF3F3
:100500000080BDE81C40704710B500F05BFA006841
:1005100010BD10B5044600F055FA046010BD7047D8
:100520002DE9FF4F0C461E464FF0FF378BB0D2E946
:100530000001DDF860800A908A46C1F30A5505B9CA
:100540003D46002108464FF00000BAF1000F00F4CC
:10055000400005DA00EB80004FF4400101EA500052
:100560004FEA9059B9F1010F00DDB9460A9850EAF7
:100570004A000ED044F61050A5F2FF3545432F1423
:10058000B8F1000F1ED07542291E1EDDC9F1000210
:100590001CE0B8F1010F4FF0000001D0302103E062
:1005A000F24305E02154401CB042FBDB3046002200
:1005B000002121540B99C1F80880C1E900200FB037
:1005C000BDE8F08FBD1B6D1CDEE74A4600DA6942CC
:1005D00006A800F081FA06AB93E8070003AB83E8B6
:1005E000070050460A9900F062FB8DE80700A0F56D
:1005F00000501F3800900398002D0ADD42F21F01C1
:100600004A460844002303A90390684600F0CBFD46
:1006100009E0A0F500504A461F38002303A90390C3
:10062000684600F0D5FD8DE807000004000C03D0FB
:100630004FF0FF30410800E01046B8F1000F03D042
:100640000022009215461EE0751E05D400F0BEF98A
:10065000303262556D1EF9D5B3460122084302D0EF
:1006600000227F1C04E02078302801D100227F1E68
:10067000002A099784D01DE0112D07DA00F0A6F9B1
:10068000303262556D1C50EA0102F5D1084302D0A8
:100690000098C8B10EE00021681E05E0235C625C92
:1006A00063542254401E491C8142F7DBAB46A81B11
:1006B000401E0990002004F80B000B98099AC0F81E
:1006C0000880C0E9002B7AE711264FF0000857E7B1
:1006D0002DE9F04F88460446D21D22F0070191B063
:1006E000D1E90001CDE90A0103F0D0FC02460B98E4
:1006F000C00F01D02D2007E02068810701D52B20F5
:1007000002E0202101EAC000032A099001D0072A53
:1007100005DB03464146204600F09EF90BE12078B8
:10072000800601D5E06900E00620B8F1650F81463A
:1007300006D0B8F1660F18D0B8F1670F70D131E06C
:100740000020B9F1110F009001DB112301E009F144
:1007500001030AAA01A90CA8FFF7E2FEDDE90C706B
:10076000002609F10105834647E001204B46009031
:100770004FF000470AAA01A90CA8FFF7D1FEDDE956
:100780000DB00C995D46002610B909F101000D1855
:10079000B9EB050003D4C0F1FF3609F10105A5EB63
:1007A00009002BE0B9F1010F01DA4FF00109002037
:1007B000B9F1110F0090484601DD112300E0034616
:1007C0000AAA01A90CA8FFF7ABFEDDE90C704D46A3
:1007D00000268346207800070AD4AB4500DA5D4640
:1007E00001A8012D04DD411911F8011C302907D0A1
:1007F0004F4502DA17F1040F04DA012082460FE0B8
:100800006D1EEEE7002F02DCED1B3E4403E0781C7A
:10081000A84200DD7D1CB81B00F1010A4FF0004723
:100820002078000703D4AA4501DB4FF0FF3A0021EE
:10083000B7F1004F0DF143088DF8431024D002208A
:100840002B23002F01DA7F422D230A21021EA0F163
:10085000010000DC5FB197FBF1FC97FBF1F201FBBB
:100860001C7C17460CF1300C08F801CDEEE7A8F11E
:10087000010003702188090501D5452100E06521AB
:10088000A0F1010800F8011C09980FA9A1EB0807C5
:10089000FF1D00B10120411901EBEA70A169384444
:1008A000081A401EA0612078C00602D42046AFF38B
:1008B0000080099828B1D4E901219047206A401CA2
:1008C00020622078C00622D52046AFF300801EE0CB
:1008D000002E04DBB34502DD01A8805D00E030207E
:1008E000D4E901219047206A401C2062761CAAF1BD
:1008F00001005FEA000A0AD100F060F8C0680168F0
:10090000405CD4E901219047206A401C2062281EE7
:10091000A5F10105DCDC07E0D4E9012118F8010BA1
:100920009047206A401C2062381EA7F10107F3DCC3
:100930002046AFF30080032011B041E601694A1C54
:1009400002610878704700B58FB0CDE90131002110
:10095000059105497944CDE9031011466846FFF732
:1009600077FC0FB000BD0000E5FFFFFF0A6802F84A
:10097000010B0A6070474FF000020429C0F012809A
:1009800010F0030C3FF421ADCCF1040CBCF1020FCC
:1009900018BF00F8012BA8BF20F8022BA1EB0C0117
:1009A000FFF713BD5FEAC17C24BF00F8012B00F8FC
:1009B000012B48BF00F8012B70470000004870472A
:1009C000D802002000487047B802002030B5B0F1CE
:1009D0000A024FEA900E71F100034EEA817EB0EBFD
:1009E0000E0061EB91014FEA101E4EEA017E10EB02
:1009F0000E0041EB11114FEA102E4EEA016E10EB82
:100A00000E0041EB11214FEA104E4EEA014E10EB61
:100A10000E0041EB1141401841F100014FEAD000B6
:100A200040EA41704FEAD10110EB80054FEA8104A2
:100A300044EA907444EB01046D1944EB0404521B26
:100A4000A3414FF0000348BF0A3200D530BD401C1F
:100A500041F1000130BD00002DE9F0411F46044680
:100A600003260168072A01F4006004DB08B116A51B
:100A700005E016A503E008B115A500E015A521F0D5
:100A800010002060A069C01EA0610FB1401EA061CF
:100A90002046AFF300804FB1D4E90121384690479A
:100AA000206A401C2062C01C206206E0206AFAE72F
:100AB000D4E9012115F8010B9047761EF8D22046A3
:100AC000AFF30080BDE8F0814E414E006E616E00D4
:100AD000494E4600696E66002DE9F047814616468C
:100AE0008AB0354878440DC88DE80D003248784406
:100AF000801C03AC0DC884E80D0041F69B3008440F
:100B0000372190FBF1F290FBF1F5A5F1800501FB97
:100B100012041B3C02D56442012000E00020DFF8F3
:100B200098A080460027FA44AAF1BE0A0EE0E0072A
:100B30000AD03246684607EB470101230AEB8101E0
:100B400000F046FB8DE8070064107F1C002CEED1FE
:100B5000194F7F44AE3F19E0E80715D007EB0410AA
:100B60000DF1180A90E80E008AE80E00C068F04205
:100B700001D1981908903246012306A903A800F074
:100B800027FB03AB83E807006D10641C002DE3D145
:100B90004FF0010332466946B8F1000F03A802D0B6
:100BA00000F001FB01E000F013FBC9E90001C9F806
:100BB00008200AB0BDE8F0876C8500000048704747
:100BC000B80200207546FFF7F9FFAE4605006946FA
:100BD000534620F00700854618B020B5FFF7EEFA1F
:100BE000BDE820404FF000064FF000074FF000082E
:100BF0004FF0000B21F00701AC46ACE8C009ACE8AF
:100C0000C009ACE8C009ACE8C0098D46704710B512
:100C10000446AFF300802046BDE81040FFF7BABAA3
:100C20004FF0013C50F8042B51F8043B9A4221D17B
:100C3000A2EB0C03934313EACC1317D150F8042B07
:100C400051F8043B9A4215D1A2EB0C03934313EAEB
:100C5000CC130BD150F8042B51F8043B9A4209D124
:100C6000A2EB0C03934313EACC13DBD04FF000004C
:100C7000704700BFD01A01BAB1FA81F101F0180132
:100C800022FA01F0CB40C1F12001DBB2C0B2C01AA0
:100C90002CFA01F3D11A914311EAC311E6D170473E
:100CA00001491820ABBEFEE72600020070475FEA4C
:100CB000400C08BF91F0000F4FEA8C234FEAC1228D
:100CC00043EA51514FEA1C5018BF00F5F0404FEA7B
:100CD000300018BF41F000415FEA6C5C00F02980F1
:100CE000BCF1FF3F08BF40F080407047130C06BFC7
:100CF00012044FF0100C4FF0000C130E04BF120240
:100D00000CF1080C130F04BF12010CF1040C930F2B
:100D100004BF92000CF1020CD30F04BF52000CF17F
:100D2000010C11464FF00002A0F11F00A0EB0C00D7
:100D3000704711F0004F08BF704731F000413FF499
:100D4000D5AF0B0C06BF09044FF0100C4FF0000C90
:100D50000B0E04BF09020CF1080C0B0F04BF0901B4
:100D60000CF1040C8B0F04BF89000CF1020CCB0FAB
:100D700004BF49000CF1010CCCF12003A0EB0C00E6
:100D800022FA03F302FA0CF241EA030100F1010036
:100D9000704720F07F4C80EA030023F07F47ACEBE4
:100DA000070303F57C5300F0004003F1FF032DE936
:100DB00080494FEA154B09B44FEA144325EA0B4E1C
:100DC00024EA03480FF2042606EB132749083E786D
:100DD0005FEA320203FB0667C7F5000707FB06F66A
:100DE0004FEA54374FEAD64606F1020607FB066C77
:100DF000CCF1005C4FEA1C472CEA074C07FB06F4D9
:100E00000CFB06F504EB15464FEA961634BF00209E
:100E10004FF000404FEAD13706FB07FC4FEA1C4C6D
:100E20000CFB0BF7D21B03FB0CF761EB07010CFB70
:100E30000EF7B0EB074072EB17420CFB08F734BF1C
:100E4000A2EB0742B2EB074261EB17414FEA0C44B9
:100E50004FEA910706FB07FC4FEA1C4C0CFB0BF713
:100E6000B0EBC74072EB573203FB0CF734BFA2EB79
:100E7000C742B2EBC74261EB57310CFB0EF7B0EB48
:100E8000C70072EB57720CFB08F734BFA2EBC70226
:100E9000B2EBC70261EB5771039F4FEA816141EAF0
:100EA000921104EBCC044FEAD1374FEA826206FB81
:100EB00007FC42EA90124FEA80604FEA1C4C0CFBA0
:100EC0000BF7D21B03FB0CF761EB07010CFB0EF7D2
:100ED000B0EB074072EB17420CFB08F734BFA2EBF4
:100EE0000742B2EB074261EB17414FEA8C554FEADC
:100EF000910704EB9C2406FB07FC4FEA1C4C0CFBFF
:100F00000BF7B0EBC74072EB573203FB0CF734BF63
:100F1000A2EBC742B2EBC74261EB57310CFB0EF7B5
:100F2000B0EBC70072EB57720CFB08F734BFA2EBB3
:100F3000C702B2EBC70261EB577115EB4C254FEAC4
:100F4000816141EA92114FEA82624FEAD13742EA67
:100F5000901206FB07FC44F100044FEA80604FEA60
:100F60001C4C0CFB0BF7D21B03FB0CF761EB0701CE
:100F70000CFB0EF7B0EB074072EB17420CFB08F7C7
:100F800034BFA2EB0742B2EB074261EB174115EB0E
:100F90001C154FEA813141EA92414FEA823242EA1E
:100FA00090424FEA80304FEA0C7644F1000448EA60
:100FB00003434EEA0B484FF0000EB2EB080C71EB06
:100FC000030724BF624639464EEB0E0E4FF0000B6E
:100FD0000018524149414BEB0B0BB2EB080C71EB83
:100FE00003077BF1000B24BF624639464EEB0E0E21
:100FF0004FF0000B0018524149414BEB0B0BB2EB89
:10100000080C71EB03077BF1000B24BF62463946E5
:101010004EEB0E0E51EA020718BF46F0010616EB22
:101020000E7655F1000254F1000103D5BDE88901A7
:10103000BDE80088BDE88901BDE80048B619524105
:1010400041EB0101A3F10103704780807F7E7D7C2D
:101050007B7A7978777676757473727171706F6E4A
:101060006E6D6C6C6B6A6A696868676666656464F5
:10107000636362616160605F5F5E5E5D5D5C5C5B7F
:101080005B5A5A59595858575756565555555454EE
:10109000535352525251515050504F4F4F4E4E4D4C
:1010A0004D4D4C4C4C4B4B4B4A4A4A494949484898
:1010B00048474747474646464545454444444443D8
:1010C00043434342424242414141002B9C4630D47B
:1010D00077002BD01CB54FEA370703B44FF0100050
:1010E0004FF01001BAF1000F06D0BCF1000FDCBFC9
:1010F00040F0080040F008014FF000000FBCBDE8D0
:1011000010400BF1010BBBF1010F08BF5FEA17079D
:1011100022BF12F1010211F101014FF0004143F130
:10112000000300F0004043EA00007047F9D357087D
:10113000D0E746EA064613F1400F4FEA16461FDD98
:1011400013F1200FDFBF16430A46002120335B4214
:10115000BED0C3F1200746EA064602FA07F74FEA77
:10116000164646EA0706C3F1200722FA03F201FAFF
:1011700007F721FA03F14FF0000342EA0702A7E75D
:1011800046EA020646EA06464FEA164646EA0106DF
:10119000BCBF46EA0646360C4FF000034FF0000293
:1011A0004FF0000194E72DE9804C9A46934670B4C5
:1011B00091E8380007C831EA400C48BF34EA430CD4
:1011C00003D5FFF7E6FDFFF780FFF0BCBDE8008C1C
:1011D0002DE9804C9A46934670B491E8380007C8D0
:1011E00010F0804F08BF13F0804F03D100F005F8D6
:1011F000FFF76BFFF0BCBDE8008C20F07F4780EA72
:10120000030023F07F4C07EB0C03A3F57C5300F0A5
:101210000040A3F1FE0392F0000F00F0B38095F0C0
:10122000000F00F077802DE901494FEA11404FEAA5
:10123000144621EA004800FB06FC24EA064708FBA6
:1012400006F607FB08F800FB07F718EB06484CEB1F
:10125000164C4FEA124B18EB07484FEA15464CEB79
:10126000174022EA0B4E0BFB06FC25EA06470EFB55
:1012700006F607FB0EFE0BFB07F71EEB064E4CEBCC
:10128000164C4FF000061EEB074E4CEB174B18EBBD
:101290000B0840F1000018EB0E0B58EB000840F172
:1012A00000008F1A4FF000013CBFC943661B14BFFA
:1012B000B5EB040C00213CBFC943F61B4FEA1744B1
:1012C0004EEA8E0E27EA04454FEA1C4704FB0762EC
:1012D0002CEA074C05FB07F70CFB05F604FB0CFC9E
:1012E00016EB074642EB174216EB0C4642EB1C424C
:1012F0001BEB060658EB0202414146EA9E0601D569
:10130000BDE80189B619524141EB0101A3F1010386
:10131000BDE801894FEA14454FEA114724EA054622
:1013200021EA074C05FB07F406FB07F70CFB06F167
:1013300005FB0CFC11EB074144EB17444FEA124745
:1013400011EB0C4144EB1C4422EA074C05FB07F26D
:1013500006FB07F70CFB06F605FB0CFC16EB074635
:1013600042EB174216EB0C4642EB1C456A1854F14F
:10137000000148BF7047B619524141EB0101A3F18A
:101380000103704795F0000F37D04FEA11424FEA42
:10139000144721EA024624EA074C02FB07F106FB48
:1013A00007F70CFB06F402FB0CFC14EB074441EBC3
:1013B00017414FEA154714EB0C4441EB1C4125EA59
:1013C000074C02FB07F506FB07F70CFB06F602FBD2
:1013D0000CFC16EB074645EB174516EB0C4645EBA8
:1013E0001C42121951F1000148BF7047B619524111
:1013F00041EB0101A3F1010370474FEA14454FEAA5
:10140000114724EA054621EA074C05FB07F106FBD4
:1014100007F70CFB06F24FF0000605FB0CFC12EB85
:10142000074241EB174112EB0C4251EB1C4148BF04
:101430007047921841EB0101A3F101037047FEE7E9
:101440002DE9F0414C4802F0F0FA4C4C60634C48F6
:1014500002F0EBFA404204F14402111FA063081F9E
:1014600004F0C8F9221D911E881E01F014FF04F13A
:101470000A02911E881E01F0F5FE424842494FF0D3
:1014800000020078097850EA010300D16265012862
:1014900005D13F4B3D481860606D401C60650129D7
:1014A00002D1606D401E6065636D1E2B01DD1E2341
:1014B00004E06FF01D00834200DA034635483649E8
:1014C000636500780D7840EA05010E0000D1A26541
:1014D000012802D1A16D1E39A165A16D012D01D197
:1014E0001E31A165322901DD322104E06FF03107A0
:1014F000B94200DA3946A16526B1012805D0012D8F
:1015000003D003E02548606200E06262D4E90D1276
:10151000184602F039FD0646E064B4F9000005F013
:10152000ADFF0546304605F0A9FFE16805F040FE35
:101530002A46216C02F076FDA064B4F9040005F09F
:101540009DFFA16D02F0C6FB2065A16C0A1A08443C
:101550000A49C4E917206031081F01F02FFE104826
:101560000078012805D0D4E91701BDE8F04101F069
:101570003BBE00210846F8E7980100205C000020EF
:1015800028020020C1000020C200002000004C42C0
:1015900058000020C3000020C40000209A99193F81
:1015A000C50000207047042000F0D0B8202000F0D3
:1015B000CDB872B6FEE7000010B5084C0122082134
:1015C000204600F0C4F90C2002F023FA2046002245
:1015D000BDE81040082100F0BAB900000008014041
:1015E00010B590F821100022022905D00421816352
:1015F00080F82020012010BD01680B6823F00E0345
:101600000B6001680B6823F001030B6090F8403019
:10161000C46B012101FA03F3636080F8211080F8A4
:101620002020104610BD000010B590F821100024B5
:10163000022903D00421816301243DE001680A6886
:1016400022F00E020A6001680A6822F001020A60B4
:101650001A4A0168914201D1012121E0174A14324E
:10166000914201D110211BE0144A2832914201D14C
:10167000891515E0114A3C32914201D189140FE0DD
:101680000E4A5032914202D14FF4803108E00B4AA9
:101690006432914202D14FF4801101E04FF0807129
:1016A000064A083A5160012180F82110002180F893
:1016B0002010416B01B18847204610BD0800024050
:1016C00070B5044600F048F90546601C02D0044895
:1016D0000078044400F040F9401BA042FAD370BDEA
:1016E000C800002010B5042805D020281BD1BDE873
:1016F0001040FFF7A5BE04210F4800F023F90F4C5E
:10170000012811D0204600F0A1FE2068406A0C4C50
:1017100080B2208005F032FA0A4A0B4B05F042FAFB
:1017200004F0F2FF606010BD216800204862BDE84F
:101730001040024800F062BE00080140E0010020B5
:10174000540000209CC420B07268913F044910B539
:101750000A68024202D00860FFF7C4FF10BD000013
:10176000140401402DE9F84FDFF8B8910024A9F1E5
:10177000040B23460F2709F1040AABF1040EC9E05C
:101780000125A5402A40AA427DD1674ED1F804C068
:10179000ACEB0608B44532D014DCBCF1030F3AD0F0
:1017A00009DCBCF1000F2AD0BCF1010F1CD0BCF148
:1017B000020F31D11DE0BCF1110F17D0BCF1120F97
:1017C0002AD119E0B8F5881F19D006DCB8F5803F9A
:1017D00015D0B8F5801F1FD111E0B8F5001F0ED04D
:1017E000B8F5041F18D10AE0CB6815E0CB681B1DC3
:1017F00012E0CB6808330FE0CB680C330CE08B6849
:101800002BB1012B4FF0080303D0456104E0042302
:1018100002E0056100E00023FF2A01D8064601E04E
:1018200000F104064FEA840501D9A5F12005D6F898
:10183000008007FA05FC28EA0C0803FA05F548EAD7
:101840000508C6F800804D68ED0062D5374DAE69D9
:1018500046F00106AE61AD6924F0030605F001050E
:101860000095334D06EB050CDCF80850A607360F43
:1018700007FA06F825EA0805DFF8B880404503D1E5
:101880004FF0000817E044E0DFF8AC80404502D19B
:101890004FF001080FE0DFF8A480404502D14FF07F
:1018A000020808E0DFF89880404502D14FF00308B5
:1018B00001E04FF0040808FA06F848EA0508CCF8F9
:1018C00008804D68D9F80060ED024D4601D51643F9
:1018D00000E096432E604D68DAF80060AD02554690
:1018E00001D5164300E096432E604D68DBF800609A
:1018F000AD035D4601D5164300E096432E604D686A
:10190000DEF80060ED03754601D5164300E096430E
:101910002E60641C0D682A46E5407FF431AFBDE8B7
:10192000F88F000008040140000011100010024070
:101930000000014000080140000C0140001001407F
:10194000001401408068084000D0012070470AB1AF
:10195000016170470904FBE7014880687047000097
:10196000C800002070B5040025D094F83D00002583
:1019700020B984F83C50204600F050F9242084F827
:101980003D002068016821F00101016020680168C4
:1019900041F4004101602068016821F400410160C8
:1019A00000F0A2FA4D4A6168914201D84C4900E02A
:1019B0004C49884201D2012070BD4B492368B0FBDD
:1019C000F1F15E6826F03F060E435E606368934265
:1019D00006D94FF4967359434FF47A73B1FBF3F180
:1019E0002368491C1E6A26F03F063143196261686C
:1019F000914210D84900401EB0FBF1F2521CC2F3D4
:101A00000B02042A01D2042022E0B0FBF1F0401CBA
:101A1000C0F30B001CE0A268F2B301EBC10303EBBF
:101A20000116431EB3FBF6F35B1C43F480431B0516
:101A300049D092B301EBC10202EB0111401EB0FB91
:101A4000F1F0401CC0F30B0040F4804040F4004033
:101A50002168CA694CF6FF739A431043C861D4E900
:101A6000071001432068026822F0C00211430160A0
:101A7000D4E9030101432068826848F2FF339A43A6
:101A800011438160D4E9050108432168CA6822F046
:101A9000FF021043C86001E00EE016E02068016814
:101AA00041F0010101602564202084F83D00256398
:101AB00084F83E50002070BD01EB4106431EB3FB8D
:101AC000F6F35B1CB3E70120C2E701EB4101401EC6
:101AD000B0FBF1F0401CC0F30B00B7E7A08601009B
:101AE00080841E0000093D0040420F002DE9FF4F99
:101AF00083B09A46DDE9119793460446DDF84080AD
:101B0000FFF72AFF054694F83D0020287FD11923CE
:101B1000012240492046009501F068F9002876D15D
:101B200094F83C00012872D0012084F83C00206821
:101B30000168C90703D1016841F001010160206813
:101B4000016821F400610160212084F83D004020FB
:101B500084F83E0000262664C4F82480A4F82A9065
:101B6000608D20852C48E062CDE9007553465A46C9
:101B70002046049901F0BAF870B930E02A46394697
:101B8000204601F0D9F958B1206C042804D120680E
:101B9000016841F400710160012007B0BDE8F08FD9
:101BA000606A216800780861606A401C6062218D6B
:101BB000491E89B22185628D521E62852268536951
:101BC000DB435B070BD469B100781061606A401C8D
:101BD0006062208D401E2085608D401E6085208DB6
:101BE0000028CBD12A463946204601F0D3F80028F8
:101BF000CAD154F83D0B016841F400710160202006
:101C000004F81E09E67766770020C6E7FFE70220A2
:101C1000C3E70000020010000000FFFF10B586B00F
:101C200000210091019102910391006813498842BB
:101C300022D1134CA06940F00800A061A069694658
:101C400000F0080004904FF44070009012200190C2
:101C5000032003900B48FFF785FD0B48416841F0D6
:101C6000E06141F002014160E06940F40010E06190
:101C7000E06900F40010049006B010BD005400406C
:101C800000100240000C0140000001400248816841
:101C90000278114481607047C8000020074810B5E1
:101CA000016841F010010160032000F075F80F2079
:101CB00000F006F800F024F8002010BD00200240DB
:101CC00070B50D4D04464FF47A712878B1FBF0F0F1
:101CD0000A490968B1FBF0F000F0DCFA48B9102CB1
:101CE00007D200222146501E00F036F800206C601A
:101CF00070BD012070BD0000C8000020D40000208D
:101D00000C4808B5816941F001018161816901F0E8
:101D100001010091C16941F08051C161C06900F0C9
:101D2000805000900448416821F0E06141F000716A
:101D3000416008BD0010024000000140002809DB9E
:101D400000F01F02012191404009800000F1E020D5
:101D5000C0F8001170470000F0B40E4B1B680C4631
:101D6000C3F30223C3F10705042D00D90425191D6F
:101D7000072901D2002300E0DB1E012606FA05F147
:101D8000491E214099409E40761E16403143F0BCCA
:101D900002F090B90CED00E0064900F00702086877
:101DA0004FF6FF03184040EA0220034A1043086040
:101DB000704700000CED00E00000FA052DE9F04747
:101DC0000F46050061D0434E306800F00700B8426E
:101DD00009D2306820F0070038433060306800F0E6
:101DE0000700B84251D128683B4C810712D5400703
:101DF00003D5606840F4E06060602878000703D590
:101E0000606840F4605060606068A96820F0F0008D
:101E1000084360602878C00728D06868012810D07F
:101E20002168022810D0890700292EDA616821F084
:101E3000030101436160FFF78FFD804641F288395D
:101E40000DE021688903EFE78901EDE7FFF784FDE5
:101E5000A0EB0801494502D90320BDE8F08760687E
:101E6000696800F00C00B0EB810FEFD1306800F032
:101E70000700B8420BD9306820F0070038433060C3
:101E8000306800F00700B84201D00120E5E728786B
:101E9000400705D56068E96820F4E06008436060A9
:101EA0002878000706D56068296920F4605040EA68
:101EB000C100606000F038F86168084AC1F303119E
:101EC000515CC8400649086006480068FFF7F8FE04
:101ED0000020C2E70020024000100240CC8E000823
:101EE000D4000020CC00002004480549006849685F
:101EF000044AC1F30221515CC8407047D40000205D
:101F000000100240DC8E000804480549006849685A
:101F1000044AC1F3C221515CC8407047D40000207C
:101F200000100240DC8E00080E4A51680E4801F095
:101F30000C03042B11D0082B0FD10C48C1F38343A1
:101F4000C903C05C0AD55168084AC1F34041921EDA
:101F5000515C054A5043B0FBF1F0704704494843D7
:101F6000704700000010024000127A00BC8E00088A
:101F700000093D002DE9F84F040070D02078C04DD5
:101F8000C00749D06868C0F38100012807D068689D
:101F9000C0F38100022809D16868C00306D528680B
:101FA000800339D560680028E7D035E06068B0F577
:101FB000803F0BD010B1B0F5A02F11D0286820F4CD
:101FC00080302860286820F4802002E0286840F4EF
:101FD00080302860606890B1FFF7BEFC06460AE0DA
:101FE000286840F480202860F0E700BFFFF7B4FCC9
:101FF000801B642873D828688003F7D50CE0FFF7AE
:10200000ABFC064605E000BFFFF7A6FC801B64287A
:10201000F0D828688003F7D420789A4E80074FF0D4
:1020200001094FF0000839D5686810F00C0F07D08F
:102030006868C0F38100022809D16868C00306D42B
:102040002868800714D52069012808D110E020698C
:10205000B0B1C6F80090FFF77FFC074605E00AE143
:10206000FFF77AFCC01B0228C4D828688007F7D580
:102070002868616920F0F80040EAC10028600DE09E
:10208000C6F80080FFF768FC074604E0FFF764FC31
:10209000C01B022823D828688007F7D420780007BF
:1020A0002CD57948A169D9B1C0F80090FFF754FC4C
:1020B000074604E0FFF750FCC01B02280FD8686AEF
:1020C0008007F7D571484FF4FA510068B0FBF1F082
:1020D000009000BF0098411E0091FAD20EE080E00F
:1020E000C0F80080FFF738FC074604E0FFF734FC37
:1020F000C01B022875D8686A8007F7D4207840078B
:1021000060D5E8690027C00008D4E86940F0805035
:10211000E861E869012700F0805000905C480168A0
:10212000C90513D40168834641F480710160FFF74B
:1021300013FC824606E000BFFFF70EFCA0EB0A008E
:1021400064284ED8DBF80000C005F5D5E06801280A
:102150000AD008B1052813D0286A20F001002862AF
:10216000286A20F0040002E0286A40F0010028629A
:10217000E06841F2883B98B1FFF7EEFB82460BE046
:10218000286A40F004002862EEE700BFFFF7E4FB96
:10219000A0EB0A0159455AD8286A8007F6D50CE009
:1021A000FFF7DAFB824605E0FFF7D6FBA0EB0A015A
:1021B00059454CD8286A8007F6D41FB1E86920F049
:1021C0008050E861E06988B36968C1F38101022940
:1021D00044D00228C6F8608004D0FFF7BDFB044657
:1021E00038E034E0FFF7B8FB074604E0FFF7B4FB44
:1021F000C01B02282BD828688001F7D4206AB0F5CC
:10220000803F05D16868A16820F400300843686009
:10221000D4E908010843696821F47411084368602F
:10222000C6F86090FFF798FB044606E025E000BF83
:10223000FFF792FB001B022809D828688001F7D518
:102240001BE000BFFFF788FB001B022802D9032018
:10225000BDE8F88F28688001F4D40EE00128F7D09B
:102260006868226A00F48031914204D1616A00F406
:102270007010884201D00120EAE70020E8E7000062
:10228000001002400000424280044242D40000207C
:102290000070004010B5401EB0F1807F01D30120D6
:1022A00010BD4FF0E02460610F21601701F002FFC4
:1022B0000020A06107202061002010BD10B590F81B
:1022C0003C20012A22D0012280F83C20CA688C6878
:1022D00022F4407222434C6822F4806222430C684C
:1022E00022F4006222430C6922F4805222434C699A
:1022F00022F400522243C969002322F480420A4397
:1023000001684A6480F83C30002010BD022010BDF6
:1023100070B590F83C20012A26D0012480F83C407A
:10232000022280F83D2003685A689D6822F07006FA
:102330000A6832435A600D4B02689A4208D0B2F1E3
:10234000804F05D00A4B9A4202D00A4B9A4204D1E0
:10235000496825F080031943916080F83D400021D1
:1023600080F83C10084670BD022070BD002C014072
:10237000000400400008004010B5040003D094F8A9
:102380003D0010B107E0012010BD002084F83C00A2
:10239000204600F01FF8022084F83D00211D20682F
:1023A00001F07CFB012084F8460084F83E0084F8AC
:1023B0003F0084F8400084F8410084F8420084F82B
:1023C000430084F8440084F8450084F83D00002070
:1023D00010BD000008B500680649884208D10648CB
:1023E000C16941F00201C161C06900F002000090C2
:1023F00008BD0000000400400010024090F83D10AD
:10240000012901D001207047022180F83D100068A9
:102410000B49884208D0B0F1804F05D00949884265
:1024200002D00949884204D1816801F007010629D8
:1024300003D0016841F001010160002070470000F5
:10244000002C0140000400400008004001680A6AB6
:1024500041F211131A4207D10A6A9B101A4203D1A2
:102460000A6822F001020A60012180F83D10002074
:10247000704770B5044690F83C000025012817D03D
:10248000012684F83C60022084F83D0020688268C0
:1024900022F0770222F47F4282600868502838D008
:1024A0000DDC20284FD005DC90B3102811D14AE074
:1024B000022070BD302846D040280AD13BE0602879
:1024C0002FD070280DD0B0F5805F03D0B0F5005F3D
:1024D00012D0012584F83D60002084F83C00284695
:1024E00070BDCB68D1E90121206801F01AFB20689A
:1024F000816841F0770109E0CB68D1E901212068CA
:1025000001F00FFB2068816841F480418160E1E7C0
:1025100019E0CA684968206801F0B8FB50212068BA
:1025200006E0CA684968206801F0C1FB60212068A4
:1025300001F001FBCEE7CA684968206801F0A6FBFC
:1025400040212068F4E7226801461046F0E72DE9B3
:10255000F0410D46040003D094F83D0018B108E0A6
:102560000120BDE8F081002084F83C00204600F006
:1025700041F8022084F83D002068816844F2070297
:1025800091438160211D206801F088FA22689068DB
:102590009169166A2B68AF69034340F203308143A7
:1025A00041EA0721A868EF6908434FF6FC418843D8
:1025B000E96840EA0720014328692F6A000140EAE0
:1025C0000730084369686D6926F0220646EA05155A
:1025D000294393602268906154F8460B0162012000
:1025E00004F81F09E0752076E0762077A0750020BA
:1025F000B7E7000000B585B000210091019102917C
:10260000039101681A48B1F1804F1BD0194A9142D9
:1026100016D1C16941F00401C161C16901F0040131
:102620000491816941F0080181618069694600F087
:1026300008000490C02000900F4800BFFFF792F8F8
:1026400005B000BDC16941F00101C161C16901F07E
:1026500001010491816941F0040181618069694649
:1026600000F004000490032000900448E6E7000016
:102670000010024000080040000C0140000801402A
:1026800070B590F83E60044690F83F5090F84230A4
:1026900090F84320022021B104290ED0012E1BD135
:1026A00014E0012E18D1012B16D184F83E0084F8D5
:1026B000420001220021206820E0012D0CD1012AD6
:1026C0000AD184F83F0084F8430014E0012D03D1BF
:1026D000012B01D1012A01D0012070BD84F83E00F8
:1026E00084F83F0084F8420084F84300012200216E
:1026F000206801F009FA01220421206801F004FA9F
:102700002068016841F001010160002070BD0000F7
:1027100000B585B0002100910191029103910068FC
:102720000B49884212D10B48816941F00401816153
:102730008069694600F0040004904FF41060009036
:102740000220019003900448FFF70CF805B000BD8B
:10275000002C0140001002400008014070B5044602
:1027600090F83C0000260D4601280FD0012084F887
:102770003C006AB1042A1DD0082A2FD00C2A3FD071
:102780000126002084F83C00304670BD022070BD58
:10279000206801F0D9F92068816941F00801816160
:1027A0002068816921F004018161206881692A69BA
:1027B000114311E0206801F0EFF92068816941F4CC
:1027C000006181612068816921F4806181612068F4
:1027D00081692A6941EA02218161D2E7206801F01A
:1027E00007FA2068C16941F00801C1612068C16928
:1027F00021F00401C1612068C1692A69114311E017
:10280000206801F021FA2068C16941F40061C161CA
:102810002068C16921F48061C1612068C1692A69A9
:1028200041EA0221C161ACE710B5040003D094F87D
:102830003D0010B107E0012010BD002084F83C00ED
:10284000204600F01FF8022084F83D00211D20687A
:1028500001F024F9012084F8460084F83E0084F851
:102860003F0084F8400084F8410084F8420084F876
:10287000430084F8440084F8450084F83D000020BB
:1028800010BD000008B500680649884208D1064816
:10289000816941F400618161806900F40060009009
:1028A00008BD0000002C01400010024010B5044695
:1028B000022249B104290ED0082913D094F841000E
:1028C000012816D0012010BD94F83E000128F9D14E
:1028D00084F83E200FE094F83F000128F2D184F8FC
:1028E0003F2008E094F840000128EBD184F8402014
:1028F00001E084F841200122206801F005F90F4928
:102900002068884203D1426C42F40042426420684D
:10291000884208D0B0F1804F05D00949884202D0E2
:102920000849884204D1816801F00701062903D0D3
:10293000016841F001010160002010BD002C014040
:10294000000400400008004070477047F8B5016877
:1029500004460868CA684B6910F00F0F4FF0000575
:1029600059D003F0010602F49077374365D0C107D0
:1029700005D0D10503D5616C41F0010161644107C7
:1029800005D5D90703D0616C41F00201616481076C
:1029900005D5D90703D0616C41F0040161640107DA
:1029A00007D502F02001314303D0616C41F00801EA
:1029B0006164616C00293AD0800604D5900602D586
:1029C000204601F0CCF920684069616CC0F38010AA
:1029D000090700D460B3204601F09AF920684069E5
:1029E000400621D52068143050E8001F21F0400136
:1029F00040E80012002AF5D1E06BA8B16D494163AF
:102A0000E06BFEF711FE002811D0E06B416B01B0C6
:102A1000BDE8F040084783060FD593060DD5204644
:102A2000BDE8F84001F09BB92046FFF78EFFF8BDE6
:102A30002046FFF78AFF6564F8BD266B2023012E30
:102A40007CD1C6067AD5D60678D508684868009045
:102A500048694FF00206400640D5E16B08684068BF
:102A60000004000CE8D0A28D8242E5D9E085886997
:102A700020282DD020680C3050E8001F21F48071F0
:102A800040E80012002AF5D12068143050E8001FF9
:102A900021F0010140E80012002AF5D1206814302D
:102AA00050E8001F21F0400140E80012002AF5D153
:102AB00084F84230256320680C3050E8001F21F074
:102AC000100140E80012002AF5D1E06BFEF788FD06
:102AD0006663A08DE18D401A81B22AE0A08DE18D60
:102AE000401A81B2E08D0028A6D00029A4D0226827
:102AF0000C3252E8000F20F4907042E80007002FDB
:102B0000F5D12068143050E8002F22F0010240E88F
:102B10000027002FF5D184F84230256320680C305F
:102B200050E8002F22F0100240E80023002BF5D1DE
:102B300066632046FFF708FFF8BDFFE705062BD5C3
:102B4000150629D594F841002128F5D1A068B0F5E3
:102B5000805F01D12069B0B1206A411C21622168E7
:102B600000784860E08C401E0004000CE084E3D153
:102B70002068C16821F08001C1602068C16841F00F
:102B80004001C160D8E7206A0088C0F308004860AF
:102B9000206A801C2062E5E74006CDD55006CBD5E3
:102BA000CA68204622F04002CA6084F8413000F032
:102BB00084F8C1E7013D000870B5040004D094F822
:102BC0004100002510B106E0012070BD84F840509E
:102BD000204600F023F8242084F841002068C168D2
:102BE00021F40051C160204601F01AF92068016902
:102BF00021F4904101612068416921F02A0141617D
:102C00002068C16841F40051C1606564202084F8E7
:102C1000410084F842006563002070BD30B585B086
:102C20000024009401940294039400681849884297
:102C30002CD11848C16941F48021C161C16901F4F6
:102C400080210491816941F0080181618069124D00
:102C500000F0080004904FF4806000900220019082
:102C60000320039069462846FEF77CFDE814CDE971
:102C70000004694628460294FEF774FD00221146BE
:102C80002720FFF769F82720FFF758F805B030BD77
:102C90000048004000100240000C014090F8423013
:102CA000202B01D00220704721B11AB10023036309
:102CB00001F012B90120704770477047FEE70168C4
:102CC0004A69D24352050FD46FF480624A610021F1
:102CD00040F8301F202242738173026942F00402DF
:102CE0000261017301207047002070472DE9F8430D
:102CF000044600680D46DDE90897016898461646C7
:102D000041F4807101604B4600224FF001112046D2
:102D1000009700F06BF848B120680068C00502D544
:102D20004FF4007020640320BDE8F883216805F0AB
:102D3000FE0008613B464A461549204600F09EF8D1
:102D400088B920684169806900903A464946204622
:102D500000F0F2F848B1206C042804D12068016822
:102D600041F4007101600120DEE7F5B2B8F1010F16
:102D700009D02168300A08613A464946204600F0E9
:102D8000DBF80028E7D1206805610020CCE70000CF
:102D90000200010070B516460D4604461EE02046AE
:102DA000FFF78DFF08B1012070BD681C16D0FEF73B
:102DB000D3FD801BA84200D885B920684069C04374
:102DC00040070BD5002044F8300F20216173A07319
:102DD000216941F0200121612073E4E72068406906
:102DE000C0434007DBD4002070BD00002DE9F04750
:102DF000984617460D460446C1F30746DDF8209075
:102E00002AE000BFB8F1FF3F26D0FEF7A5FDA0EBFA
:102E10000901414502D8B8F1000F1DD12068012EEB
:102E200016D0806925EA00000004000C12D00020B2
:102E3000B84211D1002044F8300F20216173A073F3
:102E4000216941F02001216120730120BDE8F08754
:102E50004069E7E70120EBE72068012E0AD080698E
:102E600025EA00000004000C06D00020B842C9D0BA
:102E70000020EBE74069F3E70120F7E72DE9F04791
:102E8000984616460D4604464FF000094FF0200ABA
:102E9000C1F3074723E020684069C043400515D4CB
:102EA0002068016841F40071016021686FF480605E
:102EB0004861C4F8309084F83DA084F83E90216CBD
:102EC00041F00401216484F83C9021E0701C06D09C
:102ED000FEF742FDA0EB0800B04203D816B1012F67
:102EE0001FD021E02068012F15D0806925EA00005D
:102EF0000004000C18D000BF44F8309F84F80DA0E7
:102F000084F80E90216941F02001216184F80C9031
:102F10000120BDE8F087406925EA00000004000CAC
:102F2000EAD12068406901E02068806925EA000054
:102F30000004000CAFD1ECE770B516460D46044610
:102F40001EE02046FFF7BBFE08B1012070BD681CE3
:102F500016D0FEF701FD801BA84200D885B9206875
:102F60004069C04300060BD5002044F8300F2021F3
:102F70006173A073216941F0200121612073E4E7AE
:102F800020684069C0430006DBD4002070BD00000B
:102F900010B50E4C002208212046FEF7D8FC00F0A8
:102FA00017F8012210212046FEF7D1FC00F010F89E
:102FB000002210212046FEF7CAFC00F009F8204646
:102FC0000122BDE810400821FEF7C1BC000C014001
:102FD0000020401CC0B20A28FBD370470C4800B543
:102FE000816985B041F0080181618069694600F01E
:102FF00008000490182000900320039011200190F5
:103000000448FEF7AFFB00F09DF805B000BD0000DE
:1030100000100240000C014010B50C4C01220821A8
:103020002046FEF794FCFFF7D3FF01221021204633
:10303000FEF78DFCFFF7CCFF002210212046FEF7A3
:1030400086FCBDE81040FFF7C3BF0000000C014044
:103050002DE9F0410024134E074625466006040E74
:10306000012210213046FEF772FCFFF7B1FF082164
:103070003046FEF767FC08B1641CE4B20022102160
:103080003046FEF764FCFFF7A3FF6D1CEDB2082D80
:10309000E4D327B1FFF77CFF2046BDE8F081FFF7BE
:1030A000BBFFF9E7000C014070B5154E0546002442
:1030B000280601D5012200E0002208213046FEF753
:1030C00046FCFFF785FF012210213046FEF73FFC4A
:1030D000FFF77EFF002210213046FEF738FC072C58
:1030E00004D1012208213046FEF731FC6806050EA6
:1030F000FFF76EFF641CE4B2082CD9D370BD00004A
:10310000000C014010B50E4C012208212046FEF7AC
:103110001EFC012210212046FEF719FCFFF758FF84
:10312000002208212046FEF712FCFFF751FF002283
:1031300010212046FEF70BFCBDE81040FFF748BF0A
:10314000000C014010B50A4C002208212046FEF771
:10315000FEFB012210212046FEF7F9FBFFF738FFA6
:1031600020460122BDE810400821FEF7F0BB000018
:10317000000C014070B5104D012208212846FEF7D1
:10318000E6FBFFF725FF012210212846FEF7DFFBB3
:10319000FFF71EFF08212846FEF7D4FB08B10124E3
:1031A00000E00024002210212846FEF7D0FBFFF7A4
:1031B0000FFF204670BD0000000C014010B54FF419
:1031C000E15304685A429C4201DD036002E09442EC
:1031D00000DA02600868984201DD0B6010BD904281
:1031E000FCDA0A6010BD00002DE9F0410D461B4ECF
:1031F00004004FF400514FF4805705D501223046AA
:10320000FEF7A5FB002204E000223046FEF79FFBFC
:10321000012239463046FEF79AFB002C00DA644260
:103220000F4F386804644FF480414C00002D05DADC
:1032300001223046FEF78BFB002204E000223046DC
:10324000FEF785FB012221463046FEF780FB002D6C
:1032500000DA6D4238684563BDE8F081000C01403A
:10326000500100207CB514460D4606466B460622EA
:103270003B21682000F080F800280BD1BDF8001039
:1032800049BA3180BDF8021049BA2980BDF804104E
:1032900049BA21807CBD7CB514460D4606466B4676
:1032A00006224321682000F067F800280BD1BDF802
:1032B000001049BA3180BDF8021049BA2980BDF822
:1032C000041049BA21807CBD10B5FFF787FE80212C
:1032D0006B2000F0C0F86420FEF7F2F900216B20AB
:1032E00000F0B9F8032000F082F8002000F07AF82E
:1032F000322000F099F80021382000F0ACF80021CD
:103300006A2000F0A8F80021232000F0A4F8802112
:10331000372000F0A0F8752000F011F8682801D0DF
:10332000012010BD01216B2000F095F800216C20D8
:1033300000F091F8322000F077F8002010BD10B5B1
:103340000446FFF7DFFED020FFF7AEFEFFF712FFC7
:103350002046FFF7A9FEFFF70DFFFFF7D3FED120B0
:10336000FFF7A2FEFFF706FF0020FFF771FE0446FD
:10337000FFF7E8FE204610BD2DE9F0411D4614463A
:103380000F460646FFF7BEFE7006000EFFF78CFEE6
:10339000FFF7F0FE20B1FFF7D5FE0120BDE8F08178
:1033A0003846FFF781FEFFF7E5FEFFF7ABFE012091
:1033B00000EB4600C0B2FFF777FEFFF7DBFE09E047
:1033C000012C0DD05FF00100FFF742FE641E05F8EE
:1033D000010BE4B2002CF3D1FFF7B4FE0020DDE7CF
:1033E0000020F1E7C006010E1C2000F034B8C00632
:1033F000010E1B2000F02FB8BC2801D3012110E0E2
:10340000622801D302210CE02A2801D3032108E01D
:10341000142801D3042104E00A2801D3052100E087
:1034200006211A2000F017B810B504464FF47A7040
:10343000844201D9044602E0042C00D20424B0FBEB
:10344000F4F0401EC1B2192000F005F86008BDE894
:103450001040FFF7D1BF70B50C460546FFF752FE8E
:10346000D020FFF721FEFFF785FE50B92846FFF771
:103470001BFEFFF77FFE2046FFF716FEFFF77AFEE2
:1034800018B1FFF75FFE012070BDFFF75BFE002063
:1034900070BD2DE9F0411E4615460F460446FFF764
:1034A00031FE6006000EFFF7FFFDFFF763FE60B917
:1034B0003846FFF7F9FDFFF75DFE00240CE0305DB4
:1034C000FFF7F2FDFFF756FE20B1FFF73BFE0120AC
:1034D000BDE8F081641CE4B2AC42F0D3FFF732FEE9
:1034E0000020F5E72DE9F04186B000243248009431
:1034F000019402940394816941F010018161816912
:1035000001F010010491816941F02001816181691C
:1035100001F020010491816941F004018161816918
:1035200001F004010491816941F008018161806921
:10353000224F00F008000490002208213846FEF7D0
:1035400006FADFF87C804FF218060022314640462A
:10355000FEF7FDF9042000901A48CDE90104694600
:103560003846FEF7FFF808200125CDE900050320C5
:10357000CDE9024069463846FEF7F4F80220CDE96D
:103580000240CDE9006569464046FEF7EBF8202091
:1035900000900D48CDE9010569464046FEF7E2F886
:1035A000002211460820FEF7D7FB0820FEF7C6FBD5
:1035B00006B0BDE8F08100000010024000080140A4
:1035C000000C014000003110000021100D4810B522
:1035D0000B4901600C49416000214FF48042816039
:1035E000C0E9031241618161C1610162FEF7BAF96C
:1035F000002803D0BDE81040FDF7DBBF10BD000080
:1036000000540040FC000020A086010010B592B0DC
:1036100000240F941C2168461094FCF7D4FE20214E
:1036200007A8FCF7D0FE25482349C0E9001441F65D
:103630001F41C0E90241046144618461FFF7F4F86D
:1036400008B1FDF7B6FF0F940FA91C481094FEF7C0
:103650005FFE08B1FDF7ADFF602000904FF4E15030
:10366000CDE90104039404940594002269461348AB
:103670000694FFF773F808B1FDF79BFF0C2269462B
:103680000E48FFF76BF808B1FDF793FF0794089415
:1036900009944FF400500A94CDE90B4007A907485C
:1036A0000E94FEF70BFE08B1FDF783FF0348FFF70A
:1036B0002FF812B010BD0000002C01405001002076
:1036C00010B58CB024216846FCF77DFE0024154817
:1036D00009944FF080410A94C0E900144FF6FF713D
:1036E000C0E90241046184610320CDE900040120A6
:1036F000CDE902040494CDE90540079469460948E0
:103700000894FEF724FF08B1FDF753FF099409A9B7
:1037100004480A94FEF7FCFD002801D0FDF749FF9C
:103720000CB010BD9801002010B586B000241748D9
:103730000094019402940394049413490594016045
:103740004721C0E901144FF6FF71C0E903148461F9
:10375000FEF712FE08B1FDF72CFF4FF480500090E9
:1037600069460A48FEF785FE08B1FDF722FF04947A
:1037700004A906480594FEF7CBFD002801D0FDF70B
:1037800018FF06B010BD000000040040E00100205A
:1037900010B58CB024216846FCF715FE00241648AD
:1037A000099414490A94C0E900144FF6FF71C0E966
:1037B0000241046184610320CDE900040120CDE9C8
:1037C00002040494CDE90540079469460A48089428
:1037D000FEF7BDFE08B1FDF7ECFE099409A9064805
:1037E0000A94FEF795FD002801D0FDF7E2FE0CB02B
:1037F00010BD000000080040280200200C4810B551
:103800000A4901604FF416514160002181600C2289
:10381000C160C0E904128161C161FFF7CDF90028E0
:1038200003D0BDE81040FDF7C4BE10BD0048004005
:1038300070020020FEE7FEE770B5002404F1B0003E
:10384000C0B200F0C1F8002000F0BEF8102000F077
:10385000BBF80025002000F0C9F86D1CEDB2802DEA
:10386000F8D3641CE4B2082CE8D370BD10B5C820AE
:10387000FDF726FFBDE8104000F0EEBB10B5044692
:10388000B031C8B200F0A0F8102040EA141000F0E7
:103890009BF804F00F00BDE8104000F095B8000060
:1038A0002DE9F041203A00240D468046D6B27F280B
:1038B00003D900208D1C8046EDB2102B29460FD075
:1038C000FFF7DCFF164906EB460001EB4005285DDB
:1038D00000F08CF8641CE4B2062CF8D3BDE8F0814B
:1038E000FFF7CCFF0F4F00BF04EB0610385C00F071
:1038F0007DF8641CE4B2082CF6D36D1CE9B2404696
:10390000FFF7BCFF5FF0000404EB06103844007AB8
:1039100000F06CF8641CE4B2082CF5D3DEE700007C
:10392000AA780008D27A00082DE9F05F0026DDF8B9
:1039300028901D4692468B46804634464FEA5907EA
:1039400023E0281B401EC1B20A2002F02DFEBAFB64
:10395000F0F00A21B0FBF1F201FB120026B9691E5A
:103960008C4201DA38B101263030C2B207FB048044
:10397000C0B24B4604E007FB0480C0B24B46202295
:103980005946FFF78DFF641CE4B2AC42D9D3BDE8C1
:10399000F09F2DE9F041984617460E460446002553
:1039A0000DE0434631462046FFF77AFF0834E4B283
:1039B000782C02D90024B61CF6B26D1CEDB27A5DEB
:1039C000002AEED1BDE8F08101B584B001214FF4A9
:1039D000807204A88DE807000B4600227821024877
:1039E000FEF784F805B000BDFC00002001B584B0EE
:1039F00001214FF4807204A88DE807000B46402295
:103A000078210248FEF772F805B000BDFC000020E6
:103A1000704708B500EBC00020F06040009000BF88
:103A20000098411E0091FAD208BD0168486A002240
:103A300000B24A6270477047FEF728B930B58FB0C0
:103A400028216846FCF7BFFC14210AA8FCF7BBFC40
:103A500001210804CDE900100024029402250491FC
:103A6000CDE907504FF4E01009906846FEF782FA5E
:103A700008B172B6FEE70F20CDE90A054FF4806069
:103A8000CDE90C4002210AA80E94FEF797F9002810
:103A900001D072B6FEE70FB030BD7047F0B50268D6
:103AA000164B174C174D4FF08047984205D0B8423F
:103AB00003D0A04201D0A84203D122F070064A6888
:103AC0003243984205D0B84203D0A04201D0A84268
:103AD00003D122F44074CA6822434C6922F0800268
:103AE000224302608A68C2620A688262984201D1F7
:103AF0000969016301214161F0BD0000002C014012
:103B0000000400400008004010B501F01F0301212F
:103B1000046A99408C430462016A9A40114301622D
:103B200010BD10B5846842EA032224F47F440A439E
:103B30002243826010BD826822F070020A4342F084
:103B4000070181607047000030B5036A026A22F005
:103B5000010202624268846924F073050C682C43F8
:103B600023F002058B682B430A4DA8420BD123F0AA
:103B70000805CB6822F440722B434D6923F00403FF
:103B800015438A692A43426084614968416303623C
:103B900030BD0000002C014030B5026A036A23F0FA
:103BA00010030362436884690D6824F4E64444EA20
:103BB00005248D6822F0200242EA05120B4DA8422E
:103BC0000ED1CD6822F0800242EA05124D6923F43D
:103BD000406343EA85038D6922F0400243EA85038E
:103BE0004360846149688163026230BD002C0140FA
:103BF00030B5036A026A22F4807202624268C469C4
:103C000023F4007324F073050C682C438D6843EA99
:103C100005230C4DA8420ED1CD6823F4006343EA7E
:103C200005234D6922F4405242EA05128D6923F4BE
:103C3000806342EA05124260C4614968C16303625D
:103C400030BD0000002C014030B5046A026A22F445
:103C5000805202624268C3690D6823F4E64343EA76
:103C600005238D6824F4005444EA0534064DA84227
:103C700004D14D6922F4804242EA85124260C36158
:103C800049680164046230BD002C014010B5036A2C
:103C9000046A24F001040462846924F0F00444EA14
:103CA000021423F00A020A438461026210BD10B5B7
:103CB000036A046A24F010040462846923F0A003F8
:103CC00024F4704444EA023243EA01118261016241
:103CD00010BD000070B5094D0E46696A03F0FAFB8D
:103CE0000446304603F0CAFB296A03F0F3FB214681
:103CF00003F05EFABDE8704003F084BB5C00002076
:103D000010B5406A0021C185C184FEF71EFE10BDBA
:103D100001680C3151E8002F22F4907241E8002331
:103D2000002BF5D10168143151E8002F22F0010277
:103D300041E80023002BF5D1016B012909D101686D
:103D40000C3151E8002F22F0100241E80023002B33
:103D5000F5D1202180F8421000210163704708B599
:103D600090F84210222901D0022008BD82684FF449
:103D700080539A4201D1016921B1816A9A421BD0D4
:103D80004AB10AE00268816A5268C2F308020A80F6
:103D9000816A891C08E0026972B10268526802F007
:103DA0007F020A70816A491C8162C18D491E090423
:103DB000090CC18503D01BE002685268F1E7016875
:103DC000CA6822F02002CA600168CA6822F48072C0
:103DD000CA6001684A6922F001024A61202180F824
:103DE000421000214163026B012A03D0FEF764FFF9
:103DF000002008BD016301680C3151E8002F22F05A
:103E0000100241E80023002BF5D101680A68D206B0
:103E100002D50A6849680091818DFEF795FDE7E7B4
:103E200070B5044600680169E26821F4405111430D
:103E300001612169A0680843616908432168CA6873
:103E400041F20C639A430243CA6020684169A26947
:103E500021F44071114341611E492068884202D11A
:103E6000FEF752F801E0FEF73FF800EBC00101EB6E
:103E70000012606864218000B2FBF0F3B3FBF1F341
:103E80006FF018067343B2FBF0F5B2FBF0F605EBEA
:103E90008305322303EB0515B5FBF1F5B6FBF1F60F
:103EA00005F0F00505EB0615B2FBF0F6B2FBF0F0FD
:103EB000B0FBF1F06FF01802504306EB800003EB0B
:103EC0000010B0FBF1F0216800F00F00284488607A
:103ED00070BD00000038014081628285C2850021EA
:103EE0004164222180F84210016921B10168CA6849
:103EF00042F48072CA6001684A6942F001024A6174
:103F00000068C16841F02001C160002070470000D6
:103F100010B51A48FEF71AFD19480278801F0021D3
:103F2000027052B10123012A09D0052A0BD0032ABD
:103F30000CD0072A0FD0662A19D0417000E04370D8
:103F40008170C1700AE041708370FAE7417081703E
:103F5000C170037103E041708170C37001714171E0
:103F6000BDE81040012206490448FEF797BE4170A3
:103F70008170C17001714371F2E70000700200208E
:103F8000C6000020FEE700002DE9F047244C06465D
:103F90008846A06915462149814603F071F9074614
:103FA000E06108EB0500861BA06A03F067FA216B4D
:103FB000884603F08FFA0546304603F05FFA06465E
:103FC00041464FF07E5003F05BFB314603F082FA2E
:103FD000294603F0EDF803F015FAA062E16A054600
:103FE000084444F62061E062884202DC494288428B
:103FF00000DA0846E06203F041FA394603F06AFA53
:104000000446284603F03AFA494603F063FA21468B
:1040100003F0CEF8BDE8F04703F0F4B900004843E0
:104020005C0000202DE9F0410A4D0E46074611467E
:10403000686903F04FFA04463146384603F016FB30
:10404000296903F047FA214603F0B2F8BDE8F041D0
:1040500003F0D8B95C000020FEB50024094F4FF4EE
:10406000807501263819CDE9000601230022782148
:1040700002950548FDF73AFD641CE4B21B2CF1D310
:10408000FEBD000000000020FC000020490050EAB6
:10409000C12018BF04204A0D18BF40F0010040F2B3
:1040A000FF72B2EB515F08BF40F00200012808BF69
:1040B000052070470907090E002804DB00F1E02005
:1040C00080F80014704700F00F0000F1E02080F845
:1040D000141D70472DE9F0414F1E00EBC701044647
:1040E000D1E9000115461E4637F006020DD02A46DA
:1040F000334602F057FD7F1E04EBC703D3E90023CC
:1041000002F034FB37F00602F1D1022F25D0042F44
:1041100013D0062F18BFBDE8F0812A46334602F0BF
:1041200041FDD4E90A2302F021FB2A46334602F07E
:1041300039FDD4E9082302F019FB2A46334602F080
:1041400031FDD4E9062302F011FB2A46334602F082
:1041500029FDD4E9042302F009FB2A46334602F084
:1041600021FDD4E9022302F001FB2A46334602F086
:1041700019FDD4E90023BDE8F04102F0F7BA0122AD
:1041800003F027BB02F0F2BA002213461046114694
:1041900002F09CBB024A0020110703F01ABB00008A
:1041A00001FDFFFF30380A2801D2012070470020AE
:1041B000704700002DE9FE4F07460E460025684671
:1041C00000F0DAFF00246FF00F0AE8464FF0010913
:1041D00057F8240056F82410401A00D5404203F046
:1041E0004DF9514603F023FB58F8241011F0FF4F0E
:1041F0000BD003F045F84FF07E5103F041FA0A4925
:1042000020F00040884205DC07E0084908440849DE
:10421000884202D309FA04F00543641C032CD7DB5F
:104220002846BDE8FE8F0000295C0F3E666666C129
:104230009A99D9002DE9F04D8D4F21F0004A86B0B2
:1042400005460C46BA452ADBAAEB070028430AD0EC
:104250008848824501DC1AD1CDB106B02846BDE8B8
:10426000F04DFFF78CBF844A844B284602F09AFC3D
:1042700007460E46824A834B2846214602F092FCAE
:1042800006B03A463346BDE8F04D02F06FBA012061
:10429000FCF73FF906B0BDE8F04DFFF775BF7A486F
:1042A000824542DABAF1795F0BDA2846FFF7EEFE73
:1042B000042808BFFFF76EFF284606B02146BDE878
:1042C000F08D2A460B46104602F06CFC83460246EF
:1042D0006E480E460B4606217844FFF7FBFE5A4611
:1042E000334602F05FFC804669488A465A463346A8
:1042F00004217844FFF7EEFE5A46334602F052FCA2
:1043000000223B4602F032FA02460B464046514636
:1043100002F0DCFA2A46234602F044FC06B02A46A4
:104320002346BDE8F04D02F021BA284624F00041B2
:1043300000223D463B4602F033FD4FF0FF3203F0D2
:1043400048FA0646024653480F460B460621784473
:10435000FFF7C0FE32463B4602F024FCCDE90001E7
:104360004D4832463B4604217844FFF7B3FE3246BF
:104370003B4602F017FC00222B4602F0F7F9834679
:1043800002913046394602F083F9804643480D4693
:10439000504517DCDDE900015A46029B02F096FA0F
:1043A00042462B4602F0FEFB42462B4602F0DEF967
:1043B000012203F00EFA304A304B02F0E3FD304A9E
:1043C000304B4CE04FF0000A52460B46404602F09C
:1043D000CDF9CDE9031052462B461046194602F09E
:1043E000E1FB32463B4602F0DBFCDDE9033202F042
:1043F0006DFA06460F46DDE900015A46029B02F0BF
:1044000065FA8346009101223046394603F0E1F90E
:10441000194A1A4B02F0C4FC06460F4601224046D8
:10442000294603F0D6F95A46009B02F0BBFB324600
:104430003B4602F0A7FD06460F460122504629469C
:1044400003F0C7F90E4DDFF858802A46434602F0C4
:10445000A7FC32463B4602F0A3FC2A46434602F044
:104460009FFC002CD8BF81F0004106B0BDE8F08D64
:104470000000F03F0000F07F075C143326A6913C5B
:10448000182D4454FB21F93F0000E03F0C4C000084
:10449000224C0000964B0000AC4B00003333EF3F42
:1044A000FB21E93F2DE9F84F04460D4621F000407D
:1044B00000917349814211DC7249884201DC06D1C6
:1044C0002CB120462946BDE8F84FFFF758BE6E488C
:1044D000002DCCBF6D496E49BDE8F88F6D49814212
:1044E00011DD6D498142D8BF4FF0FF366DDD2046AA
:1044F0002946FFF7CBFD042808BFFFF74BFE2046F7
:104500002946BDE8F88F6549654F25F00045814291
:1045100033DD6449814219DD002632464FF0804385
:104520002046294602F022F980468A46012220468A
:10453000294603F04EF900223B4602F023FD424695
:10454000534602F0C3F904460D463EE00126002220
:10455000BA463B462046294602F008F980460F46F7
:10456000002253462046294602F00CFD42463B46B7
:1045700002F0ACF904460D4627E04B4981421BDDB1
:10458000DFF828A10226002253462046294602F0E1
:1045900009FB00223B4602F0E9F880460F46002264
:1045A00053462046294602F0EDFC42463B4602F0C7
:1045B0008DF904460D4608E0032622462B460020CE
:1045C0003B4902F083F904460D4622462B4610462D
:1045D000194602F0E7FA8B46824602460B4602F085
:1045E000E1FA07460246334888460B4606217844DE
:1045F000FFF770FD52465B4602F0D4FA82462E4821
:104600008B463A46434605217844FFF763FD3A4618
:10461000434602F0C7FA02460B46002E5046594662
:104620000CDA02F0A3F822462B4602F0BBFA01B0E6
:1046300022462B46BDE8F04F02F0B2BB02F096F8DE
:1046400022462B4602F0AEFA1C4A7A4402EBC6031D
:10465000D3E9002302F096FC22462B4602F092FC9E
:10466000174A7A4402EBC603D3E9002302F098FB11
:10467000009A002AB8BF81F00041BDE8F88F000021
:10468000000010440000F07F182D4454FB21F93F36
:10469000FB21F9BF0000DC3F0000203E0000F33F9B
:1046A0000000F03F0000E63F008003400000F83FBC
:1046B0000000F0BFAE4900006C4900000A4900004C
:1046C000D24800002DE9F04D9446CCF1000423F0CF
:1046D00000464CEA0404524F46EAD4749A4688468F
:1046E00021F00042BC4206D8454240EA050442EAB5
:1046F000D474BC4204D9BDE8F04D6246FFF742BD18
:10470000AAF14055A5F17F6555EA0C040BD00224AF
:1047100004EAAA74434DDFF810E144EAD87452EA7F
:10472000000B04D00CE0BDE8F04DFFF7BBBE002C41
:1047300014BF012CBDE8F08D022C30D0032C32D0F8
:1047400056EA0C0B0AD0BE4220D1BA4209D126F05B
:10475000804622F080423346114617E000291ADBDA
:1047600025E0DFF8C8B0FB44002C04BFDBE9000102
:10477000BDE8F08D012C02BFDBE9000181F00041B2
:10478000BDE8F08D022C0AD0032C0CD0BA4212D115
:10479000B8F1000F0BDA23482549BDE8F08D284613
:1047A0002449BDE8F08D28467146BDE8F08D1D48CE
:1047B0002149BDE8F08D921B12153C2AC4BF19484F
:1047C0001D490EDCBAF1000FBEBF12F13C0F0020F4
:1047D000014606DB624602F079F821F00041FFF75E
:1047E00061FE002C08BFBDE8F08D012C04BF81F0F4
:1047F0000041BDE8F08D114A114B022C07D002F0A8
:10480000C1FB2A46BDE8F04D0A4B02F0BBBB02F0EB
:10481000B9FB2A46BDE8F04D064B02F0C1BA0000D4
:104820000000F07F182D4454FB2109C066480000A9
:10483000FB21F9BFFB210940FB21F93F075C143341
:1048400026A6A13C08B560B120208DF800002820E4
:104850008DF8010030208DF8020038208DF803001B
:1048600004E0A32204216846FBF7A5FD6A46042163
:1048700040F69E2001F06EFE01F02CFB08BD00000A
:104880003EB5044602208DF80000CA208DF80100D4
:10489000E3208DF8020009208DF803006A46042108
:1048A000682001F057FEA3208DF80000610609D5AD
:1048B000C0218DF80110C8218DF80210C2218DF899
:1048C000031005E08DF801008DF802008DF803005B
:1048D00014F4C07F09D0C4218DF80410CC218DF8C8
:1048E0000510C6218DF8061005E08DF804008DF83E
:1048F00005008DF806008DF808008DF807008DF88A
:1049000009006A460A2140F6A72001F023FEA0070D
:104910004FF0D80503D020208DF8000001E08DF87D
:1049200000506A46012140F6B62001F013FEA006B1
:1049300001D5012000E0002000F08EF814F4C07FC3
:104940001ED0E0050AD5B2208DF800008B208DF82E
:104950000100B6208DF802009B2009E0B0208DF800
:10496000000080208DF80100B4208DF80200902016
:104970008DF803006A46042140F6A22001F0EAFD0A
:10498000E1074FF40B6022D0F8218DF800106A4641
:10499000012101F0DFFDFA21072000F039FB07209B
:1049A00000F004FB012000F021FB642000F0C4FBB8
:1049B0004FF4FA7000F0D0FBC821254800F0BEFA91
:1049C000282000F0D3FA0A2000F0E0FA05E08DF884
:1049D00000506A46012101F0BDFDA00703D5D92092
:1049E0008DF8000001E08DF800506A46012140F288
:1049F0003D7001F0AFFD600701D5012000E000200F
:104A000000F048F8E00601D5012000E00020FFF7A3
:104A100019FF104D44F00800688101F05BFA002096
:104A2000A873600601D50620A87314F4C07F02D0D5
:104A3000A87B801DA87314F0140F02D0A87B10303F
:104A4000A873A00702D0A87B001DA87300203EBD5C
:104A500009E3CA02D80000200EB54FF4976310B1E5
:104A600006A107C901E008A207CA8DE807006A4647
:104A70000921184601F06EFD0EBD0000B8AAB38DE5
:104A8000B4980D355D000000B8AAAAAAB088C3C5C5
:104A9000C700000008B560B1C0208DF80000C2203A
:104AA0008DF80100C4208DF80200C6208DF80300A7
:104AB00004E08B2204216846FBF77DFC6A46042152
:104AC00040F6982001F046FD01F004FA08BD000010
:104AD000C8234FF48062024940F6F63001F0DCB89A
:104AE000C48200082DE9FF4F89B01746DDE9165250
:104AF00000244C4E884681462C80A246B07B6946F5
:104B000001F076F94FF0FF3B18B158460DB0BDE803
:104B1000F08F708910F0140F3CD0009909BA21F081
:104B2000FF039DF803100B433B6001991B1409BA66
:104B300021F0FF029DF807105B430A437A60029957
:104B40009DF80B4009BA21F0FF012143B960039C95
:104B5000091424BA24F0FF0C9DF80F4012144CEAFB
:104B6000040CC7F80CC04FEA2C47494302FB023241
:104B700007FB071111441024A1F17061B1F1007F0E
:104B800004D901F0A7F9A5F800A0BEE7298841F4EF
:104B9000807129804206694611D50A19A41D13881F
:104BA0005BBAA8F8003053885BBAA8F80230928844
:104BB00052BAA8F804202A8842F008022A8010F489
:104BC000C07F11D00A19A41D13885BBAA9F8003060
:104BD00053885BBAA9F80230928852BAA9F8042027
:104BE0002A8842F070022A80800716D00C44E078B0
:104BF00000F0C00500F03F016078C00706D0C8088B
:104C000001F007013268491C02B190476078000743
:104C100003D5716809B1A80988470C9800F0BEFD5A
:104C2000002073E7D80000202DE9FF41044603A8C7
:104C300000F01AFFBDF80C00410CC3032F48028995
:104C400002F00300550754F8200000D54042C2F39B
:104C5000C105960654F8255000D56D42C2F3811661
:104C6000D20554F8264000D56442A0FB0367C21762
:104C700002FB037200FB0120820042EA9670A5FB52
:104C80000367EA1702FB037205FB0122950045EA60
:104C90009672A4FB0367E51705FB037304FB013160
:104CA0008B0043EA9671030E8DF80030030C8DF8EB
:104CB0000130030A8DF802308DF80300100E8DF8D4
:104CC0000400100C8DF80500100A8DF80600080E7F
:104CD0008DF80800080C8DF80900080A8DF80A0004
:104CE0008DF807208DF80B106A460C214FF42570C3
:104CF00001F030FC04B0BDE8F0810000D8000020D5
:104D000030B5044613A285B007CA8DE807004FF0FE
:104D1000FF35C82C16D8C820B0FBF4F1491E080A8C
:104D20008DF80C008DF80D1003AA022140F2162018
:104D300001F010FC30B96A460C2140F6C12001F0A8
:104D400009FC10B1284605B030BD0548848100201B
:104D5000F9E70000FEF2ABC4AAF1DFDFBBAFDFDF93
:104D6000D8000020F8B53049098901F0030250F855
:104D700022404A0700D56442C1F3C1028B0650F8B5
:104D8000222000D55242C1F3811350F82330C805C8
:104D900000D55B42254984FB0140850045EA9470BB
:104DA00082FB0142A40F44EA820483FB0121950F98
:104DB00045EA8105010E8DF80010010C8DF80110F7
:104DC000010A8DF802108DF803006A4604214FF4A1
:104DD000747001F0BFFB4FF0FF3688B9200E8DF8DC
:104DE0000000200C8DF80100200A8DF802008DF8DB
:104DF00003406A4604214FF4757001F0ABFB08B123
:104E00003046F8BD280E8DF80000280C8DF8010002
:104E1000280A8DF802008DF803506A4604214FF4E9
:104E2000767001F097FBF8BDD800002009E3CA02B4
:104E30002DE9FF4104463CA004F003030068029002
:104E40003AA0006803903AA006683AA0056802A854
:104E5000C15C8DF80010C4F3C101425C8DF80120E3
:104E6000C4F38112805C8DF8020003A8C35C8DF846
:104E70000430415C8DF80510805C8DF806006A46B0
:104E8000032140F2264001F065FB4FF0FF37E0BB05
:104E900001AA032140F22A4001F05CFBA8BBCDE946
:104EA000006560070BD59DF8000040F001008DF80B
:104EB00000009DF8040040F001008DF80400A006F9
:104EC0000BD59DF8010040F001008DF801009DF820
:104ED000050040F001008DF80500E0050BD59DF8B8
:104EE000020040F001008DF802009DF8060040F03D
:104EF00001008DF806006A4603214FF4886001F036
:104F000029FB10B901AA032100E004E040F231407E
:104F100001F020FB18B1384604B0BDE8F081064826
:104F200004810020F8E700004CCD6C000CC92C0077
:104F30003656760026466600D80000204FF47A7276
:104F400090FBF2F008B54843010E8DF80010010CFB
:104F50008DF80110010A8DF802108DF803006A46E1
:104F600004214FF4AE7001F0F5FA08BD0521B0FB45
:104F7000F1F008B5010A8DF800108DF801006A46BD
:104F800002214FF4AD7001F0E5FA08BD0521B0FB38
:104F9000F1F008B5010A8DF800108DF801006A469D
:104FA00002214FF4AC7001F0D5FA08BD08B500211C
:104FB0008DF80010C10702D030218DF80010810754
:104FC00005D59DF8001041F00C018DF80010400748
:104FD00005D59DF8000040F003008DF800006A46FA
:104FE00001214FF4A47001F0B5FA08BD08B560B115
:104FF000042800D90420401E8DF800006A460121D3
:1050000040F24F1001F0A6FA08BD0120F3E70000BE
:105010002DE9FC41054640074FF0FF367CD0B1F545
:10502000C86F79D8084602F041FA3E4902F028F9E3
:10503000074601A800F0FAFC9DF80400022806D0FB
:1050400004280DD008282ED0102865D134E00E2178
:10505000384602F0ECFB02F0F1F984B2324907E085
:105060000D21384602F0E3FB02F0E8F92F4984B243
:10507000384602F02FFA02F0E1F9210A8DF800100B
:1050800080B28DF80140010A8DF802108DF80300FE
:10509000E8076C4620D0224602214FF4EA7001F066
:1050A00059FAC8BB11E00C21384602F0C0FB02F0EF
:1050B000C5F984B21E49DBE70B21384602F0B7FB85
:1050C00002F0BCF984B21B49D2E7A21C02214FF4C2
:1050D000927001F03FFAF8B9A8070DD56A4602218F
:1050E0004FF4EC7001F036FAB0B9A21C02214FF473
:1050F000947001F02FFA78B9680710D56A4602213A
:105100004FF4EE7001F026FA30B9A21C02214FF4E0
:10511000967001F01FFA10B13046BDE8FC81002006
:10512000FBE7000000004843000040460000C04587
:10513000000040450000C0440521B0FBF1F008B577
:10514000010A8DF800108DF801006A4602214FF423
:10515000EF7001F0FFF908BD0521B0FBF1F008B5D3
:10516000010A8DF800108DF801006A4602214FF403
:10517000ED7001F0EFF908BD2DE9FE430646264823
:1051800001AB042240680D210078FEF7F5F810B15C
:105190000720BDE8FE839DF804101C2000EAD10220
:1051A0009DF80710DFF87490C1F301131A438DF8CE
:1051B00000209DF80520C1F3810300EAD2021A43C2
:1051C0008DF801209DF8062001F0030100EAD200CD
:1051D00008430024124F8DF80200A0466D46285D5A
:1051E00010B146F824900AE046F824800DE000BF94
:1051F00056F82400394602F06DF946F82400285D7F
:10520000401E10F0FF002855F2D1641CE4B2032CBC
:10521000E5D30020BDE700001C0000207B14AE3E5B
:105220001D5A843F2DE9FE4F05460120C14E8DF8E1
:1052300000004FF000088DF8018030680C461746DA
:10524000817C70686B4602220078FEF722F94FF0ED
:10525000FF3A00287AD1C820FCF732FA8DF8008096
:1052600030686B460122C17B70680078FEF711F947
:105270000028EFD130686B460122417970680078D0
:10528000FEF707F90028E5D130686B460122817CE2
:1052900070680078FEF7FDF80028DBD130686B46B7
:1052A0000122C17D70680078FEF7F3F80028D1D1A3
:1052B00030686B460122017970680078FEF7E9F8E2
:1052C0000028C7D14FF00C098DF8009030686B466C
:1052D0000122017970680078FEF7DBF8002835D1EB
:1052E0000F20FCF7EDF9B06A6B460122407A8DF889
:1052F00000003068817870680078FEF7CAF80028EE
:1053000024D1B06A6B460122007A8DF80000306823
:10531000417870680078FEF7BCF8002873D1B06A55
:10532000807A0FB140F0E0008DF8000030686B46E5
:105330000122817970680078FEF7ABF8002862D10D
:105340002FB1B06AC07A40F0E00001E04AE01820D6
:105350008DF8000030686B460122C17970680078D2
:10536000FEF797F8F0BB17B1C820FCF7A9F9402069
:105370008DF8000030686B46012201797068007872
:10538000FEF787F870BB78208DF8000030686B4618
:105390000122417970680078FEF77BF810BB32205B
:1053A000FCF78EF98DF80080306847466B464179EE
:1053B000706801220078FEF76CF898B9316870685F
:1053C000B046897A00786B460222FDF7D5FF48B9CE
:1053D000BDF80000AF6040BAB0FBF9F06F60C6B234
:1053E0002F6000E00FE0A76067602760002739E0CA
:1053F000D8F80010D8F804006B46C97A00780C225F
:10540000FDF7BAFF10B15046BDE8FE8FBDF80000B1
:10541000236840BA02B2BDF80200BDF804101A4475
:10542000226040BA626800B21044606049BAA06865
:1054300009B20844A060BDF806002B6840BA02B269
:10544000BDF808001A4440BA01B2BDF80A002A604B
:105450006A6840BA11446960A96800B208447F1CB8
:10546000FFB2A860B742C3D328688322C1170904DA
:1054700041EA104100040023FAF7B2FE324600234D
:10548000FAF7AEFE286068688322C117090441EA72
:10549000104100040023FAF7A3FE32460023FAF776
:1054A0009FFE6860A8688322C117090441EA104181
:1054B00000040023FAF794FE32460023FAF790FE28
:1054C000A86020684FF40065C117090441EA104143
:1054D00000042A460023FAF783FE32460023FAF737
:1054E0007FFE206060682A46C117090441EA104126
:1054F00000040023FAF774FE32460023FAF770FE28
:105500006060A0682A46C117090441EA10410004FE
:105510000023FAF765FE32460023FAF761FEA06029
:10552000002802DDA0F5803001E000F58030A060A9
:10553000002069E71C0000202DE9F84F81462E4825
:105540008846002540686B46032200780D21FDF750
:1055500013FF10B10720BDE8F88F9DF8000000246C
:1055600000F01F008DF800009DF801006FF00F0B98
:1055700000F01F008DF801009DF802006E4600F05B
:105580001F008DF802004FF0010A00BF59F82410E7
:1055900058F82400081A00D5404201F06FFF594620
:1055A00002F045F90746305DC0B1144802E01449E5
:1055B00001F090FF315D491E11F0FF013155F6D128
:1055C0000146384601F05CFE4FF07E5102F058F87B
:1055D0000C4920F00040884205DC07E00A483844C6
:1055E000B0F1D97F02D90AFA04F00543641C032CF8
:1055F000CCDB2846AFE700001C0000200000C841BB
:1056000054E3853F295C0F3E0000E0BE00B5024632
:1056100000F00DF80346D01C00F009F843EAC0037F
:10562000901D00F004F843EA801080B200BD90F9AC
:105630000010002902DD4FF00000704702DA4FF041
:105640000400704790F90110002902DD4FF00100BD
:10565000704702DA4FF00500704790F90200002809
:1056600002DD4FF00200704702DA4FF0060070478B
:105670004FF007007047000008B5FCF70FFBFEF77E
:10568000DDF9FDF72FFFFDF7A1FFFEF74DF8FDF760
:10569000BDFFFEF715F8FEF77BF8FEF7AFF8FEF753
:1056A000E5F8FEF7C9F8FDF70FFE00F071F90021EB
:1056B0000C2329A20846FEF76CF900221146172098
:1056C000FCF74AFB1720FCF739FB00212348FDF7C4
:1056D000EDF80C212148FDF7E9F83C212048FCF7C2
:1056E000CFFF3C211F48FCF7CBFF01221E491F487A
:1056F000FDF7D4FA00210846FDF776FDFEF79CF889
:10570000194C1B4E1B4F10250095002122780223B7
:105710000846FEF709F9306801F01EFD02460B4607
:1057200015A11948FAF780FD1023174A042100201B
:10573000FEF72FF9FBF740FF386801F00DFD024638
:105740000B4612A11048FAF76FFD10230E4A0621EE
:105750000020FEF71EF9D7E76F6B00005001002014
:105760009801002028020020C600002070020020BE
:105770009C00002058000020726F6C6C3A252E317E
:105780006620202000000000E80000206469737497
:10579000616E63653A252E31662020007047000057
:1057A0002DE9F041124C20F00101002594F824006D
:1057B00010B10020BDE8F081A07A4FF0FF3668B14B
:1057C0000840277C2074884200D0354641B1012032
:1057D00000F032FF00F07EFB38B127743046E9E775
:1057E000207D00B1012000F027FF2846E2E70000FD
:1057F0001C0000202DE9F74F8EB00CA902A8CDE9BE
:1058000000010BAB03AA09A907A8FFF76BF918B1B0
:10581000012011B0BDE8F08FBDF80800C0057DD5AE
:10582000039801F02BFE6FF01D04214601F0FFFFED
:105830008246049801F022FE214601F0F8FF8146DD
:10584000059801F01BFE214601F0F1FF8046069805
:1058500001F014FE214601F0EAFF05460121504601
:1058600001F0E5FF0646414601F034FE04464FF0E4
:105870004041484601F02EFE0746294601F02AFE27
:10588000214601F095FC01F067FCFEF7D3FC4FF0D8
:10589000663B5A463D4B01F085F900F035FF0E9905
:1058A00008600121404601F0C2FF4146009001F02E
:1058B00011FE04463846494601F00CFE214601F02F
:1058C000DFFE4FF07E5101F073FC01F045FC07460E
:1058D0000C463046494601F0FDFD06462946009833
:1058E00001F0F8FD314601F063FC01F035FC3A4669
:1058F0002346FEF7E7FE5A46244B01F053F900F029
:1059000003FF0F9908602946084601F0E3FD0746AA
:105910004146084601F0DEFD064600E034E0494617
:10592000084601F0D7FD04465146084601F0D2FD75
:10593000214601F03DFC314601F0A2FE394601F05E
:105940009FFE01F009FC06460C462946504601F030
:10595000C1FD05464146484601F0BCFD294601F01F
:1059600027FC012101F063FF01F0F6FB32462346DC
:10597000FEF7A8FE5A46054B01F014F900F0C4FEEC
:1059800010990860002044E7022042E766A64C40D8
:1059900010B5FDF723FB00F0EDF808B10A2010BDAB
:1059A000782000F07BFD10F0FF0F01D0012010BD2A
:1059B0007820FFF7F5FE10F0FF0F01D0022010BD98
:1059C000642000F02BFD10F0FF0F01D0032010BD6C
:1059D000FFF77EF810F0FF0F01D0042010BD124831
:1059E000FFF714FEFFF724FA10F0FF0F01D0052097
:1059F00010BD40F27310FEF743FF10F0FF0F01D00F
:105A0000062010BD6420FFF77BF910F0FF0F01D0D6
:105A1000072010BD00F0D0FD012000F025FC10F0A3
:105A2000FF00F6D0092010BD480000200D494A7A39
:105A300042B1012A08D0022A0FD0032A0FD04FF01A
:105A4000FF307047022200E004220270C97C11B1CD
:105A50001106C90D0170002070470822F5E71022D9
:105A6000F3E700001C0000200F494A7A42B1012AE6
:105A700009D0022A11D0032A12D04FF0FF3070470C
:105A80004FF4804201E041F69C720280C97C11B162
:105A9000C2F34E010180002070474FF48052F4E7BA
:105AA0004FF40062F1E700001C0000200B49097A66
:105AB00039B1012907D002290AD003290BD00021CE
:105AC00003E0FA2101E04FF4FA71018000207047F1
:105AD0004FF47A71F9E74FF4FA61F6E71C00002001
